:100000000C9434000C9451000C9451000C94510049
:100010000C9451000C9451000C9451000C9451001C
:100020000C9451000C9451000C9451000C9451000C
:100030000C9453000C9451000C9451000C945100FA
:100040000C9451000C9451000C9451000C945100EC
:100050000C9451000C9451000C9451000C945100DC
:100060000C9451000C94510011241FBECFEFD8E026
:10007000DEBFCDBF11E0A0E0B1E0EAE6F2E002C0F1
:1000800005900D92A031B107D9F721E0A0E1B1E0D0
:1000900001C01D92AC31B207E1F70E94A9000C9497
:1000A00033010C9400001F920F920FB60F9211248F
:1000B0008F939F9380918600909187008093110188
:1000C0009F918F910F900FBE0F901F90189588B938
:1000D000289A29982A9A8FE39CE90197F1F700C0A2
:1000E00000002A98089588B9289829982A9A8FE3B9
:1000F0009CE90197F1F700C000002A980895EF925B
:10010000FF921F93CF93DF937C0110E0C62FD0E0C6
:10011000812F012E000C990B8C179D0734F0DF9175
:10012000CF911F91FF90EF9008958E0D9F1DFC01C0
:1001300080810E9467001F5FEBCF88E30E947300FD
:1001400086E00E9473008CE00E94730081E00C94B2
:1001500073008FEF87B984B1876084B978948091F8
:100160006F00806280936F00809180008C7F80930D
:10017000800080918100877E809381008091810042
:10018000856080938100809181008D7F80938100C4
:1001900040918600509187008091810021E030E0FD
:1001A00001C0220F4A95EAF7822B809381000E94BA
:1001B0009D0080E890E00E9473006EE070E080E0B7
:1001C00091E00E947F00CAE0D4E680EC90E00E94BB
:1001D000730020911101822F6C2F0E942701382F6C
:1001E000492F80931A01822F6D2F0E942701282FFB
:1001F000809310011092180140931701832F6C2FE8
:100200000E9427019093160120931501109213016B
:100210001092120180E390E00E9467008091130128
:1002200090E0C0960E9467008091150190E0C09612
:100230000E9467008091160190E0C0960E946700BE
:100240008091170190E0C0960E946700BECF991B75
:1002500079E004C0991F961708F0961B881F7A95BD
:0A026000C9F780950895F894FFCFC8
:10026A00494E5055542043415054555245443A0042
:00000001FF
