:100000000C9434000C943E000C943E000C943E0082
:100010000C943E000C943E000C943E000C943E0068
:100020000C943E000C943E000C943E000C943E0058
:100030000C943E000C943E000C943E000C943E0048
:100040000C943E000C943E000C943E000C943E0038
:100050000C943E000C9440000C943E000C943E0026
:100060000C943E000C943E0011241FBECFEFD8E04C
:10007000DEBFCDBF0E9456000C9492000C9400008D
:100080001F920F920FB60F9211248F939F9380911E
:1000900078009091790090938900809388009F91D7
:1000A0008F910F900FBE0F901F9018958091800038
:1000B00083608093800080918100886080938100BC
:1000C000809181008F7E8093810080918000806884
:1000D00080938000809180008F7B8093800080914E
:1000E0008100836080938100219A789480917A00C6
:1000F000806180937A0010927C0080917A00806EFB
:1001000080937A0080917A00846080937A00809155
:100110007A008D7F80937A0080917A00806480934A
:080120007A00FFCFF894FFCF35
:00000001FF
