:100000000C9434000C943E000C943E000C943E0082
:100010000C943E000C943E000C943E000C943E0068
:100020000C943E000C943E000C943E000C943E0058
:100030000C943E000C943E000C943E000C943E0048
:100040000C943E000C943E000C943E000C943E0038
:100050000C943E000C9440000C943E000C943E0026
:100060000C943E000C943E0011241FBECFEFD8E04C
:10007000DEBFCDBF0E9456000C9495000C9400008A
:100080001F920F920FB60F9211248F939F9380911E
:1000900078009091790090938900809388009F91D7
:1000A0008F910F900FBE0F901F9018958091800038
:1000B00083608093800080918100886080938100BC
:1000C000809181008F7E8093810080918000806884
:1000D00080938000809180008F7B8093800080914E
:1000E0008100836080938100219A789480917A00C6
:1000F000886080937A0080E480937C0010927B007B
:1001000080917A00806A80937A0080917A0084607E
:1001100080937A0080917A008C7F80937A0080911E
:0E0120007A00806480937A00FFCFF894FFCFBE
:00000001FF
