:100000000C9434000C9449000C9449000C94490061
:100010000C9449000C9449000C9449000C9449003C
:100020000C9449000C9449000C9449000C9449002C
:100030000C9449000C9449000C9449000C9449001C
:100040000C9449000C9449000C9449000C9449000C
:100050000C9449000C9449000C9449000C944900FC
:100060000C9449000C94490011241FBECFEFD8E036
:10007000DEBFCDBF11E0A0E0B1E0E2E2F1E002C0FE
:1000800005900D92AA30B107D9F70E944B000C944D
:100090008F000C940000CF93DF93CDB7DEB7299784
:1000A0000FB6F894DEBF0FBECDBF8FEF84B929E045
:1000B000E0E0F1E0CE010196DC0101900D922A957D
:1000C000E1F79E01265F3F4FFC01419145B94FEF9B
:1000D00059E668E1415050406040E1F700C000003F
:1000E000E217F30791F7EFE9FFE03197F1F700C06E
:1000F0000000F901429145B94FEF59E668E14150DE
:1001000050406040E1F700C00000E817F90791F7A0
:10011000EFE9FFE03197F1F700C00000D5CFF89488
:02012000FFCF0F
:0A0122000080C0E0F0F8FCFEFF00D2
:00000001FF
