:100000000C9434000C943E000C943E000C943E0082
:100010000C943E000C943E000C943E000C943E0068
:100020000C943E000C943E000C943E000C943E0058
:100030000C943E000C943E000C943E000C943E0048
:100040000C943E000C943E000C943E000C943E0038
:100050000C943E000C943E000C943E000C943E0028
:100060000C943E000C943E0011241FBECFEFD8E04C
:10007000DEBFCDBF0E9440000C945A000C940000DB
:10008000259A90E285B1892785B92FEF39E688E175
:10009000215030408040E1F700C0000085B185B9B3
:1000A0002FEF39E688E1215030408040E1F700C071
:0800B0000000E8CFF894FFCF37
:00000001FF
