:100000000C9434000C9446000C9446000C9446006A
:100010000C9446000C9446000C9446000C94460048
:100020000C9446000C9446000C9446000C94460038
:100030000C9446000C9446000C9446000C94460028
:100040000C9446000C9446000C9448000C94460016
:100050000C9446000C9446000C9446000C94460008
:100060000C9446000C94460011241FBECFEFD8E03C
:10007000DEBFCDBF21E0A0E0B1E001C01D92A13004
:10008000B207E1F70E9458000C9484000C94000021
:100090001F920F920FB60F9211248F93809100013F
:1000A0008093C6008F910F900FBE0F901F901895F0
:1000B00078948091C10088618093C1008091C100D3
:1000C00080688093C1008091C1008B7F8093C100C4
:1000D0008091C20086608093C2008091C0008260DF
:1000E0008093C00080E18093C4001092C500209AE4
:1000F00080910001813621F4289A90E080E00895F3
:0C0100008236D9F72898F9CFF894FFCF89
:00000001FF
