:100000000C9434000C9449000C9449000C94490061
:100010000C9449000C9449000C9449000C9449003C
:100020000C9449000C9449000C9449000C9449002C
:100030000C9449000C9449000C9449000C9449001C
:100040000C9449000C9449000C9449000C9449000C
:100050000C9449000C9449000C9449000C944900FC
:100060000C9449000C94490011241FBECFEFD8E036
:10007000DEBFCDBF11E0A0E0B1E0E0E6F1E002C0FC
:1000800005900D92A031B107D9F70E948D000C9414
:10009000AE000C9400008BB9289A29982A9A8FE315
:1000A0009CE90197F1F700C000002A9808958BB9E8
:1000B000289829982A9A8FE39CE90197F1F700C0C4
:1000C00000002A980895EF92FF921F93CF93DF9339
:1000D0007C0110E0C62FD0E0812F012E000C990B7F
:1000E0008C179D0734F0DF91CF911F91FF90EF9017
:1000F00008958E0D9F1DFC0180810E944B001F5FA3
:10010000EBCF88E30E94570086E00E9457008CE006
:100110000E94570081E00C9457008FEF8AB984B198
:10012000876084B90E94810080E80E94570065E0E2
:1001300080E091E00E94630080EC0E94570068E03C
:1001400086E091E00E9463002FEF87EA91E621505C
:1001500080409040E1F700C00000E6CFF894FFCF68
:10016000497266616E0046617468616E204D0000E0
:00000001FF
