:100000000C9434000C943E000C943E000C943E0082
:100010000C943E000C943E000C943E000C943E0068
:100020000C943E000C943E000C943E000C943E0058
:100030000C943E000C943E000C943E000C943E0048
:100040000C943E000C943E000C943E000C943E0038
:100050000C943E000C943E000C943E000C943E0028
:100060000C943E000C943E0011241FBECFEFD8E04C
:10007000DEBFCDBF0E9440000C9491000C940000A4
:1000800080918000836080938000809181008860EF
:1000900080938100809181008F7E80938100809188
:1000A0008000806880938000809180008F7B8093A7
:1000B000800080918100836080938100219A90E08C
:1000C00080E09093890080938800EFE3FFE131970F
:1000D000F1F700C0000001968115F4E09F0789F751
:1000E0002FEF87EA91E6215080409040E1F700C071
:1000F000000080E094E09093890080938800EFE313
:10010000FFE13197F1F700C000000197A1F7FFEF81
:1001100027EA81E6F15020408040E1F700C000006E
:06012000CECFF894FFCFE2
:00000001FF
