:100000000C9434000C943E000C943E000C943E0082
:100010000C943E000C943E000C943E000C943E0068
:100020000C943E000C943E000C943E000C94400056
:100030000C943E000C943E000C943E000C943E0048
:100040000C943E000C943E000C943E000C943E0038
:100050000C943E000C943E000C943E000C943E0028
:100060000C943E000C943E0011241FBECFEFD8E04C
:10007000DEBFCDBF0E9458000C9483000C9400009A
:100080001F920F920FB60F9211248F939F9310928D
:1000900085001092840088E09DE39093890080930E
:1000A00088009F918F910F900FBE0F901F90189511
:1000B000789480916F00826080936F0080918000BF
:1000C0008C7F8093800080918100877E8093810067
:1000D00080918000806C8093800080918100856099
:1000E00080938100809181008D7F809381001092A8
:1000F00085001092840088E09DE3909389008093AE
:0A0100008800219AFFCFF894FFCF8A
:00000001FF
