:100000000C9434000C9449000C9449000C94490061
:100010000C9449000C9449000C9449000C9449003C
:100020000C9449000C9449000C9449000C9449002C
:100030000C9449000C9449000C9449000C9449001C
:100040000C9449000C9449000C9449000C9449000C
:100050000C9449000C9449000C9449000C944900FC
:100060000C9449000C94490011241FBECFEFD8E036
:10007000DEBFCDBF11E0A0E0B1E0EAEEF0E002C0EB
:1000800005900D92AA30B107D9F70E944B000C944D
:1000900073000C940000CF93DF93CDB7DEB72A979F
:1000A0000FB6F894DEBF0FBECDBF8FEF8AB98AE0DE
:1000B000E0E0F1E0DE01119601900D928A95E1F702
:1000C000CE010B96FE01319621912BB92FEF39E627
:1000D00048E1215030404040E1F700C00000E817FF
:0A00E000F90791F7EFCFF894FFCF76
:0A00EA003F065B4F666D7D077F6FD8
:00000001FF
