:100000000C9434000C9440000C944B000C943E0073
:100010000C943E000C943E000C943E000C943E0068
:100020000C943E000C943E000C943E000C943E0058
:100030000C943E000C943E000C943E000C943E0048
:100040000C943E000C943E000C943E000C943E0038
:100050000C943E000C943E000C943E000C943E0028
:100060000C943E000C943E0011241FBECFEFD8E04C
:10007000DEBFCDBF0E9456000C946C000C940000B3
:100080001F920F920FB60F921124289A0F900FBE55
:100090000F901F9018951F920F920FB60F92112478
:1000A00028980F900FBE0F901F901895209A8AB134
:1000B000837F8AB98BB18C608BB9809169008A602B
:1000C00080936900809169008A7F809369008DB375
:0C00D00083608DBB7894FFCFF894FFCFC5
:00000001FF
