:100000000C9434000C9440000C944B000C943E0073
:100010000C943E000C943E000C943E000C943E0068
:100020000C943E000C943E000C943E000C943E0058
:100030000C943E000C943E000C943E000C943E0048
:100040000C943E000C943E000C943E000C943E0038
:100050000C943E000C943E000C943E000C943E0028
:100060000C943E000C943E0011241FBECFEFD8E04C
:10007000DEBFCDBF0E9456000C945F000C940000C0
:100080001F920F920FB60F921124289A0F900FBE55
:100090000F901F9018951F920F920FB60F92112478
:1000A00028980F900FBE0F901F901895209A789463
:1000B0008DB383608DBB85B78F6085BFFFCFF8940C
:0200C000FFCF70
:00000001FF
