:100000000C9434000C9449000C9449000C94490061
:100010000C9449000C9449000C9449000C9449003C
:100020000C9449000C9449000C9449000C9449002C
:100030000C9449000C9449000C9449000C9449001C
:100040000C9449000C9449000C9449000C9449000C
:100050000C9449000C9449000C9449000C944900FC
:100060000C9449000C94490011241FBECFEFD8E036
:10007000DEBFCDBF11E0A0E0B1E0E8E5F1E002C0F5
:1000800005900D92A430B107D9F70E944B000C9453
:10009000AA000C9400008FEF84B98AB92091000166
:1000A0003091010140910201509103016DE076E62B
:1000B00089E190E00E948000615A7C408149934C24
:1000C00060930001709301018093020190930301FA
:1000D000672F782F892F99276BB980910001909114
:1000E0000101A0910201B0910301CD01AA27BB2714
:1000F00085B98FE39CE90197F1F700C00000CECFEE
:10010000DB018F939F930E949000BF91AF91A29FBC
:10011000800D911DA39F900DB29F900D1124089505
:100120000E949B00A59F900DB49F900DA49F800DF1
:10013000911D11240895A29FB001B39FC001A39FF8
:10014000700D811D1124911DB29F700D811D112410
:08015000911D0895F894FFCF02
:04015800EFBEADDE6B
:00000001FF
